{
  "contractName": "FreedomFinance",
  "abi": [
    {
      "inputs": [
        {
          "internalType": "contract Token",
          "name": "_token",
          "type": "address"
        }
      ],
      "stateMutability": "nonpayable",
      "type": "constructor"
    },
    {
      "anonymous": false,
      "inputs": [
        {
          "indexed": false,
          "internalType": "address",
          "name": "account",
          "type": "address"
        },
        {
          "indexed": false,
          "internalType": "address",
          "name": "token",
          "type": "address"
        },
        {
          "indexed": false,
          "internalType": "uint256",
          "name": "amount",
          "type": "uint256"
        },
        {
          "indexed": false,
          "internalType": "uint256",
          "name": "rate",
          "type": "uint256"
        }
      ],
      "name": "TokenPurchased",
      "type": "event"
    },
    {
      "anonymous": false,
      "inputs": [
        {
          "indexed": false,
          "internalType": "address",
          "name": "account",
          "type": "address"
        },
        {
          "indexed": false,
          "internalType": "address",
          "name": "token",
          "type": "address"
        },
        {
          "indexed": false,
          "internalType": "uint256",
          "name": "amount",
          "type": "uint256"
        },
        {
          "indexed": false,
          "internalType": "uint256",
          "name": "rate",
          "type": "uint256"
        }
      ],
      "name": "TokenSold",
      "type": "event"
    },
    {
      "inputs": [],
      "name": "name",
      "outputs": [
        {
          "internalType": "string",
          "name": "",
          "type": "string"
        }
      ],
      "stateMutability": "view",
      "type": "function",
      "constant": true
    },
    {
      "inputs": [],
      "name": "rate",
      "outputs": [
        {
          "internalType": "uint256",
          "name": "",
          "type": "uint256"
        }
      ],
      "stateMutability": "view",
      "type": "function",
      "constant": true
    },
    {
      "inputs": [],
      "name": "symbol",
      "outputs": [
        {
          "internalType": "string",
          "name": "",
          "type": "string"
        }
      ],
      "stateMutability": "view",
      "type": "function",
      "constant": true
    },
    {
      "inputs": [],
      "name": "token",
      "outputs": [
        {
          "internalType": "contract Token",
          "name": "",
          "type": "address"
        }
      ],
      "stateMutability": "view",
      "type": "function",
      "constant": true
    },
    {
      "inputs": [],
      "name": "buyTokens",
      "outputs": [],
      "stateMutability": "payable",
      "type": "function",
      "payable": true
    },
    {
      "inputs": [
        {
          "internalType": "uint256",
          "name": "_amount",
          "type": "uint256"
        }
      ],
      "name": "sellTokens",
      "outputs": [],
      "stateMutability": "payable",
      "type": "function",
      "payable": true
    }
  ],
  "bytecode": "0x60806040526040518060400160405280600f81526020017f46726565646f6d2e46696e616e63650000000000000000000000000000000000815250600090805190602001906200005192919062000120565b506040518060400160405280600381526020017f46444d0000000000000000000000000000000000000000000000000000000000815250600190805190602001906200009f92919062000120565b506064600355348015620000b257600080fd5b5060405162000e6f38038062000e6f8339818101604052810190620000d891906200024e565b80600260006101000a81548173ffffffffffffffffffffffffffffffffffffffff021916908373ffffffffffffffffffffffffffffffffffffffff16021790555050620002e5565b8280546200012e90620002af565b90600052602060002090601f0160209004810192826200015257600085556200019e565b82601f106200016d57805160ff19168380011785556200019e565b828001600101855582156200019e579182015b828111156200019d57825182559160200191906001019062000180565b5b509050620001ad9190620001b1565b5090565b5b80821115620001cc576000816000905550600101620001b2565b5090565b600080fd5b600073ffffffffffffffffffffffffffffffffffffffff82169050919050565b60006200020282620001d5565b9050919050565b60006200021682620001f5565b9050919050565b620002288162000209565b81146200023457600080fd5b50565b60008151905062000248816200021d565b92915050565b600060208284031215620002675762000266620001d0565b5b6000620002778482850162000237565b91505092915050565b7f4e487b7100000000000000000000000000000000000000000000000000000000600052602260045260246000fd5b60006002820490506001821680620002c857607f821691505b60208210811415620002df57620002de62000280565b5b50919050565b610b7a80620002f56000396000f3fe6080604052600436106100555760003560e01c806306fdde031461005a5780632c4e722e146100855780636c11bcd3146100b057806395d89b41146100cc578063d0febe4c146100f7578063fc0c546a14610101575b600080fd5b34801561006657600080fd5b5061006f61012c565b60405161007c9190610724565b60405180910390f35b34801561009157600080fd5b5061009a6101ba565b6040516100a7919061075f565b60405180910390f35b6100ca60048036038101906100c591906107ab565b6101c0565b005b3480156100d857600080fd5b506100e16103f4565b6040516100ee9190610724565b60405180910390f35b6100ff610482565b005b34801561010d57600080fd5b50610116610665565b6040516101239190610857565b60405180910390f35b60008054610139906108a1565b80601f0160208091040260200160405190810160405280929190818152602001828054610165906108a1565b80156101b25780601f10610187576101008083540402835291602001916101b2565b820191906000526020600020905b81548152906001019060200180831161019557829003601f168201915b505050505081565b60035481565b80600260009054906101000a900473ffffffffffffffffffffffffffffffffffffffff1673ffffffffffffffffffffffffffffffffffffffff166370a08231336040518263ffffffff1660e01b815260040161021c91906108f4565b60206040518083038186803b15801561023457600080fd5b505afa158015610248573d6000803e3d6000fd5b505050506040513d601f19601f8201168201806040525081019061026c9190610924565b101561027757600080fd5b60006003548261028791906109af565b90508047101561029657600080fd5b600260009054906101000a900473ffffffffffffffffffffffffffffffffffffffff1673ffffffffffffffffffffffffffffffffffffffff166323b872dd3330856040518463ffffffff1660e01b81526004016102f5939291906109e0565b602060405180830381600087803b15801561030f57600080fd5b505af1158015610323573d6000803e3d6000fd5b505050506040513d601f19601f820116820180604052508101906103479190610a4f565b503373ffffffffffffffffffffffffffffffffffffffff166108fc829081150290604051600060405180830381858888f1935050505015801561038e573d6000803e3d6000fd5b507fa8a7473f10e62cf9687e243de1c3ac8b3cbc3dd04b96826beb3a65b59538581433600260009054906101000a900473ffffffffffffffffffffffffffffffffffffffff16846003546040516103e89493929190610a7c565b60405180910390a15050565b60018054610401906108a1565b80601f016020809104026020016040519081016040528092919081815260200182805461042d906108a1565b801561047a5780601f1061044f5761010080835404028352916020019161047a565b820191906000526020600020905b81548152906001019060200180831161045d57829003601f168201915b505050505081565b6000600354346104929190610ac1565b90506000600260009054906101000a900473ffffffffffffffffffffffffffffffffffffffff1673ffffffffffffffffffffffffffffffffffffffff166370a08231306040518263ffffffff1660e01b81526004016104f191906108f4565b60206040518083038186803b15801561050957600080fd5b505afa15801561051d573d6000803e3d6000fd5b505050506040513d601f19601f820116820180604052508101906105419190610924565b90508181101561055057600080fd5b600260009054906101000a900473ffffffffffffffffffffffffffffffffffffffff1673ffffffffffffffffffffffffffffffffffffffff1663a9059cbb33846040518363ffffffff1660e01b81526004016105ad929190610b1b565b602060405180830381600087803b1580156105c757600080fd5b505af11580156105db573d6000803e3d6000fd5b505050506040513d601f19601f820116820180604052508101906105ff9190610a4f565b507f8daf503382665d950e449b86172be5222275c90f4ddf69c29fdaa8237a562a6d33600260009054906101000a900473ffffffffffffffffffffffffffffffffffffffff16846003546040516106599493929190610a7c565b60405180910390a15050565b600260009054906101000a900473ffffffffffffffffffffffffffffffffffffffff1681565b600081519050919050565b600082825260208201905092915050565b60005b838110156106c55780820151818401526020810190506106aa565b838111156106d4576000848401525b50505050565b6000601f19601f8301169050919050565b60006106f68261068b565b6107008185610696565b93506107108185602086016106a7565b610719816106da565b840191505092915050565b6000602082019050818103600083015261073e81846106eb565b905092915050565b6000819050919050565b61075981610746565b82525050565b60006020820190506107746000830184610750565b92915050565b600080fd5b61078881610746565b811461079357600080fd5b50565b6000813590506107a58161077f565b92915050565b6000602082840312156107c1576107c061077a565b5b60006107cf84828501610796565b91505092915050565b600073ffffffffffffffffffffffffffffffffffffffff82169050919050565b6000819050919050565b600061081d610818610813846107d8565b6107f8565b6107d8565b9050919050565b600061082f82610802565b9050919050565b600061084182610824565b9050919050565b61085181610836565b82525050565b600060208201905061086c6000830184610848565b92915050565b7f4e487b7100000000000000000000000000000000000000000000000000000000600052602260045260246000fd5b600060028204905060018216806108b957607f821691505b602082108114156108cd576108cc610872565b5b50919050565b60006108de826107d8565b9050919050565b6108ee816108d3565b82525050565b600060208201905061090960008301846108e5565b92915050565b60008151905061091e8161077f565b92915050565b60006020828403121561093a5761093961077a565b5b60006109488482850161090f565b91505092915050565b7f4e487b7100000000000000000000000000000000000000000000000000000000600052601260045260246000fd5b7f4e487b7100000000000000000000000000000000000000000000000000000000600052601160045260246000fd5b60006109ba82610746565b91506109c583610746565b9250826109d5576109d4610951565b5b828204905092915050565b60006060820190506109f560008301866108e5565b610a0260208301856108e5565b610a0f6040830184610750565b949350505050565b60008115159050919050565b610a2c81610a17565b8114610a3757600080fd5b50565b600081519050610a4981610a23565b92915050565b600060208284031215610a6557610a6461077a565b5b6000610a7384828501610a3a565b91505092915050565b6000608082019050610a9160008301876108e5565b610a9e60208301866108e5565b610aab6040830185610750565b610ab86060830184610750565b95945050505050565b6000610acc82610746565b9150610ad783610746565b9250817fffffffffffffffffffffffffffffffffffffffffffffffffffffffffffffffff0483118215151615610b1057610b0f610980565b5b828202905092915050565b6000604082019050610b3060008301856108e5565b610b3d6020830184610750565b939250505056fea2646970667358221220e03d9b7f1d7a598aa12dda227b35e576bab095927e0d37db620fb9f6ab6b5bf864736f6c63430008090033",
  "immutableReferences": {},
  "source": "// SPDX-License-Identifier: UNLICENSED\r\npragma solidity ^0.8.9;\r\n\r\nimport \"./Token.sol\";\r\n\r\ncontract FreedomFinance {\r\n  string public name = \"Freedom.Finance\";\r\n  string public symbol = \"FDM\";\r\n  Token public token;\r\n  uint public rate = 100; //100 FDM tokens = 1 Ether\r\n\r\n  event TokenPurchased( \r\n    address account,\r\n    address token,\r\n    uint amount,\r\n    uint rate\r\n  );\r\n\r\n  event TokenSold( \r\n    address account,\r\n    address token,\r\n    uint amount,\r\n    uint rate\r\n  );\r\n\r\n  constructor(Token _token) {\r\n    token = _token;  \r\n  }\r\n\r\n function buyTokens() public payable {\r\n    uint purchaseAmount = msg.value * rate;\r\n    uint tokenLiquidity = token.balanceOf(address(this));\r\n    //Check if the exchange has enough tokens. require() exist the function when false\r\n    require(tokenLiquidity >= purchaseAmount);\r\n    //transfer tokens to the user\r\n    token.transfer(msg.sender, purchaseAmount);\r\n    // Emit an event\r\n    emit TokenPurchased(msg.sender, address(token), purchaseAmount, rate);\r\n  }\r\n\r\n  function sellTokens(uint _amount) public payable {\r\n    //user cannot sell more tokens than they own\r\n    require(token.balanceOf(msg.sender) >= _amount);\r\n    //check Ether balance is enough\r\n    uint etherAmount = _amount / rate;\r\n    require(address(this).balance >= etherAmount);\r\n    // Take the user tokens\r\n    token.transferFrom(msg.sender, address(this), _amount); \r\n    // Pay the user ether\r\n    payable(msg.sender).transfer(etherAmount);\r\n    // Emit an event\r\n    emit TokenSold(msg.sender, address(token), _amount, rate);\r\n  }\r\n}",
  "sourcePath": "C:/Users/kyle-/Web Dev/freedom.finance/src/contracts/FreedomFinance.sol",
  "compiler": {
    "name": "solc",
    "version": "0.8.9+commit.e5eed63a.Emscripten.clang"
  },
  "schemaVersion": "3.4.0",
  "updatedAt": "2021-10-07T16:42:14.931Z",
  "networkType": "ethereum",
  "devdoc": {
    "kind": "dev",
    "methods": {},
    "version": 1
  },
  "userdoc": {
    "kind": "user",
    "methods": {},
    "version": 1
  }
}