{
  "contractName": "FreedomFinance",
  "abi": [
    {
      "inputs": [
        {
          "internalType": "contract Token",
          "name": "_token",
          "type": "address"
        }
      ],
      "stateMutability": "nonpayable",
      "type": "constructor"
    },
    {
      "anonymous": false,
      "inputs": [
        {
          "indexed": false,
          "internalType": "address",
          "name": "account",
          "type": "address"
        },
        {
          "indexed": false,
          "internalType": "address",
          "name": "token",
          "type": "address"
        },
        {
          "indexed": false,
          "internalType": "uint256",
          "name": "amount",
          "type": "uint256"
        },
        {
          "indexed": false,
          "internalType": "uint256",
          "name": "rate",
          "type": "uint256"
        }
      ],
      "name": "TokenPurchased",
      "type": "event"
    },
    {
      "inputs": [],
      "name": "name",
      "outputs": [
        {
          "internalType": "string",
          "name": "",
          "type": "string"
        }
      ],
      "stateMutability": "view",
      "type": "function"
    },
    {
      "inputs": [],
      "name": "rate",
      "outputs": [
        {
          "internalType": "uint256",
          "name": "",
          "type": "uint256"
        }
      ],
      "stateMutability": "view",
      "type": "function"
    },
    {
      "inputs": [],
      "name": "token",
      "outputs": [
        {
          "internalType": "contract Token",
          "name": "",
          "type": "address"
        }
      ],
      "stateMutability": "view",
      "type": "function"
    },
    {
      "inputs": [],
      "name": "buyTokens",
      "outputs": [],
      "stateMutability": "payable",
      "type": "function"
    }
  ],
  "bytecode": "0x60806040526040518060400160405280600f81526020017f46726565646f6d2e46696e616e636500000000000000000000000000000000008152506000908051906020019062000051929190620000d2565b5060646002553480156200006457600080fd5b5060405162000a3c38038062000a3c83398181016040528101906200008a919062000200565b80600160006101000a81548173ffffffffffffffffffffffffffffffffffffffff021916908373ffffffffffffffffffffffffffffffffffffffff1602179055505062000297565b828054620000e09062000261565b90600052602060002090601f01602090048101928262000104576000855562000150565b82601f106200011f57805160ff191683800117855562000150565b8280016001018555821562000150579182015b828111156200014f57825182559160200191906001019062000132565b5b5090506200015f919062000163565b5090565b5b808211156200017e57600081600090555060010162000164565b5090565b600080fd5b600073ffffffffffffffffffffffffffffffffffffffff82169050919050565b6000620001b48262000187565b9050919050565b6000620001c882620001a7565b9050919050565b620001da81620001bb565b8114620001e657600080fd5b50565b600081519050620001fa81620001cf565b92915050565b60006020828403121562000219576200021862000182565b5b60006200022984828501620001e9565b91505092915050565b7f4e487b7100000000000000000000000000000000000000000000000000000000600052602260045260246000fd5b600060028204905060018216806200027a57607f821691505b6020821081141562000291576200029062000232565b5b50919050565b61079580620002a76000396000f3fe60806040526004361061003f5760003560e01c806306fdde03146100445780632c4e722e1461006f578063d0febe4c1461009a578063fc0c546a146100a4575b600080fd5b34801561005057600080fd5b506100596100cf565b6040516100669190610418565b60405180910390f35b34801561007b57600080fd5b5061008461015d565b6040516100919190610453565b60405180910390f35b6100a2610163565b005b3480156100b057600080fd5b506100b9610359565b6040516100c691906104ed565b60405180910390f35b600080546100dc90610537565b80601f016020809104026020016040519081016040528092919081815260200182805461010890610537565b80156101555780601f1061012a57610100808354040283529160200191610155565b820191906000526020600020905b81548152906001019060200180831161013857829003601f168201915b505050505081565b60025481565b6000600254346101739190610598565b90506000600160009054906101000a900473ffffffffffffffffffffffffffffffffffffffff1673ffffffffffffffffffffffffffffffffffffffff166370a08231306040518263ffffffff1660e01b81526004016101d29190610613565b60206040518083038186803b1580156101ea57600080fd5b505afa1580156101fe573d6000803e3d6000fd5b505050506040513d601f19601f82011682018060405250810190610222919061065f565b90508181101561023157600080fd5b6000600254346102419190610598565b9050600160009054906101000a900473ffffffffffffffffffffffffffffffffffffffff1673ffffffffffffffffffffffffffffffffffffffff1663a9059cbb33836040518363ffffffff1660e01b81526004016102a092919061068c565b602060405180830381600087803b1580156102ba57600080fd5b505af11580156102ce573d6000803e3d6000fd5b505050506040513d601f19601f820116820180604052508101906102f291906106ed565b507f8daf503382665d950e449b86172be5222275c90f4ddf69c29fdaa8237a562a6d33600160009054906101000a900473ffffffffffffffffffffffffffffffffffffffff168360025460405161034c949392919061071a565b60405180910390a1505050565b600160009054906101000a900473ffffffffffffffffffffffffffffffffffffffff1681565b600081519050919050565b600082825260208201905092915050565b60005b838110156103b957808201518184015260208101905061039e565b838111156103c8576000848401525b50505050565b6000601f19601f8301169050919050565b60006103ea8261037f565b6103f4818561038a565b935061040481856020860161039b565b61040d816103ce565b840191505092915050565b6000602082019050818103600083015261043281846103df565b905092915050565b6000819050919050565b61044d8161043a565b82525050565b60006020820190506104686000830184610444565b92915050565b600073ffffffffffffffffffffffffffffffffffffffff82169050919050565b6000819050919050565b60006104b36104ae6104a98461046e565b61048e565b61046e565b9050919050565b60006104c582610498565b9050919050565b60006104d7826104ba565b9050919050565b6104e7816104cc565b82525050565b600060208201905061050260008301846104de565b92915050565b7f4e487b7100000000000000000000000000000000000000000000000000000000600052602260045260246000fd5b6000600282049050600182168061054f57607f821691505b6020821081141561056357610562610508565b5b50919050565b7f4e487b7100000000000000000000000000000000000000000000000000000000600052601160045260246000fd5b60006105a38261043a565b91506105ae8361043a565b9250817fffffffffffffffffffffffffffffffffffffffffffffffffffffffffffffffff04831182151516156105e7576105e6610569565b5b828202905092915050565b60006105fd8261046e565b9050919050565b61060d816105f2565b82525050565b60006020820190506106286000830184610604565b92915050565b600080fd5b61063c8161043a565b811461064757600080fd5b50565b60008151905061065981610633565b92915050565b6000602082840312156106755761067461062e565b5b60006106838482850161064a565b91505092915050565b60006040820190506106a16000830185610604565b6106ae6020830184610444565b9392505050565b60008115159050919050565b6106ca816106b5565b81146106d557600080fd5b50565b6000815190506106e7816106c1565b92915050565b6000602082840312156107035761070261062e565b5b6000610711848285016106d8565b91505092915050565b600060808201905061072f6000830187610604565b61073c6020830186610604565b6107496040830185610444565b6107566060830184610444565b9594505050505056fea2646970667358221220cae87c48c087bcf0fc737ad87bffa565abda6d32396832d8c1f420ffcb62625c64736f6c63430008090033",
  "immutableReferences": {},
  "source": "// SPDX-License-Identifier: UNLICENSED\r\npragma solidity ^0.8.9;\r\n\r\nimport \"./Token.sol\";\r\n\r\ncontract FreedomFinance {\r\n  string public name = \"Freedom.Finance\";\r\n  Token public token;\r\n  uint public rate = 100; //100 FDM tokens = 1 Ether\r\n\r\n  event TokenPurchased( \r\n    address account,\r\n    address token,\r\n    uint amount,\r\n    uint rate\r\n  );\r\n\r\n  constructor(Token _token) {\r\n    token = _token;  \r\n  }\r\n\r\n function buyTokens() public payable {\r\n    //Check if the exchange has enough tokens\r\n    uint purchaseAmount = msg.value * rate;\r\n    uint tokenLiquidity = token.balanceOf(address(this));\r\n    require(tokenLiquidity >= purchaseAmount);\r\n    //msg.sender who called this function. \r\n    //msg.value amount of Ether sent into the exchange\r\n    uint tokenAmount = msg.value * rate;\r\n    token.transfer(msg.sender, tokenAmount);\r\n\r\n    // Emit an event\r\n    emit TokenPurchased(msg.sender, address(token), tokenAmount, rate);\r\n  }\r\n}",
  "sourcePath": "C:/Users/kyle-/Web Dev/freedom.finance/src/contracts/FreedomFinance.sol",
  "compiler": {
    "name": "solc",
    "version": "0.8.9+commit.e5eed63a.Emscripten.clang"
  },
  "schemaVersion": "3.4.0",
  "updatedAt": "2021-10-06T23:08:55.929Z",
  "devdoc": {
    "kind": "dev",
    "methods": {},
    "version": 1
  },
  "userdoc": {
    "kind": "user",
    "methods": {},
    "version": 1
  }
}