{
  "contractName": "FreedomFinance",
  "abi": [
    {
      "inputs": [
        {
          "internalType": "contract Token",
          "name": "_token",
          "type": "address"
        }
      ],
      "stateMutability": "nonpayable",
      "type": "constructor"
    },
    {
      "inputs": [],
      "name": "name",
      "outputs": [
        {
          "internalType": "string",
          "name": "",
          "type": "string"
        }
      ],
      "stateMutability": "view",
      "type": "function"
    },
    {
      "inputs": [],
      "name": "token",
      "outputs": [
        {
          "internalType": "contract Token",
          "name": "",
          "type": "address"
        }
      ],
      "stateMutability": "view",
      "type": "function"
    }
  ],
  "bytecode": "0x60806040526040518060400160405280600f81526020017f46726565646f6d2e46696e616e636500000000000000000000000000000000008152506000908051906020019061004f9291906100c5565b5034801561005c57600080fd5b50604051610591380380610591833981810160405281019061007e91906101dd565b80600160006101000a81548173ffffffffffffffffffffffffffffffffffffffff021916908373ffffffffffffffffffffffffffffffffffffffff1602179055505061026b565b8280546100d190610239565b90600052602060002090601f0160209004810192826100f3576000855561013a565b82601f1061010c57805160ff191683800117855561013a565b8280016001018555821561013a579182015b8281111561013957825182559160200191906001019061011e565b5b509050610147919061014b565b5090565b5b8082111561016457600081600090555060010161014c565b5090565b600080fd5b600073ffffffffffffffffffffffffffffffffffffffff82169050919050565b60006101988261016d565b9050919050565b60006101aa8261018d565b9050919050565b6101ba8161019f565b81146101c557600080fd5b50565b6000815190506101d7816101b1565b92915050565b6000602082840312156101f3576101f2610168565b5b6000610201848285016101c8565b91505092915050565b7f4e487b7100000000000000000000000000000000000000000000000000000000600052602260045260246000fd5b6000600282049050600182168061025157607f821691505b602082108114156102655761026461020a565b5b50919050565b6103178061027a6000396000f3fe608060405234801561001057600080fd5b50600436106100365760003560e01c806306fdde031461003b578063fc0c546a14610059575b600080fd5b610043610077565b60405161005091906101c4565b60405180910390f35b610061610105565b60405161006e9190610265565b60405180910390f35b60008054610084906102af565b80601f01602080910402602001604051908101604052809291908181526020018280546100b0906102af565b80156100fd5780601f106100d2576101008083540402835291602001916100fd565b820191906000526020600020905b8154815290600101906020018083116100e057829003601f168201915b505050505081565b600160009054906101000a900473ffffffffffffffffffffffffffffffffffffffff1681565b600081519050919050565b600082825260208201905092915050565b60005b8381101561016557808201518184015260208101905061014a565b83811115610174576000848401525b50505050565b6000601f19601f8301169050919050565b60006101968261012b565b6101a08185610136565b93506101b0818560208601610147565b6101b98161017a565b840191505092915050565b600060208201905081810360008301526101de818461018b565b905092915050565b600073ffffffffffffffffffffffffffffffffffffffff82169050919050565b6000819050919050565b600061022b610226610221846101e6565b610206565b6101e6565b9050919050565b600061023d82610210565b9050919050565b600061024f82610232565b9050919050565b61025f81610244565b82525050565b600060208201905061027a6000830184610256565b92915050565b7f4e487b7100000000000000000000000000000000000000000000000000000000600052602260045260246000fd5b600060028204905060018216806102c757607f821691505b602082108114156102db576102da610280565b5b5091905056fea26469706673582212202da0d517ce6d5573b8f467ceb87f250f2aa65af487075b354fbc76d89ee601b664736f6c63430008090033",
  "immutableReferences": {},
  "source": "// SPDX-License-Identifier: UNLICENSED\r\npragma solidity ^0.8.9;\r\n\r\nimport \"./Token.sol\";\r\n\r\ncontract FreedomFinance {\r\n  string public name = \"Freedom.Finance\";\r\n  Token public token;\r\n\r\n  constructor(Token _token) {\r\n    token = _token;  \r\n  }\r\n}",
  "sourcePath": "C:/Users/kyle-/Web Dev/myDex/src/contracts/FreedomFinance.sol",
  "compiler": {
    "name": "solc",
    "version": "0.8.9+commit.e5eed63a.Emscripten.clang"
  },
  "schemaVersion": "3.4.0",
  "updatedAt": "2021-10-06T21:32:38.237Z",
  "devdoc": {
    "kind": "dev",
    "methods": {},
    "version": 1
  },
  "userdoc": {
    "kind": "user",
    "methods": {},
    "version": 1
  }
}