{
  "contractName": "FreedomFinance",
  "abi": [
    {
      "inputs": [
        {
          "internalType": "contract Token",
          "name": "_token",
          "type": "address"
        }
      ],
      "stateMutability": "nonpayable",
      "type": "constructor"
    },
    {
      "anonymous": false,
      "inputs": [
        {
          "indexed": false,
          "internalType": "address",
          "name": "account",
          "type": "address"
        },
        {
          "indexed": false,
          "internalType": "address",
          "name": "token",
          "type": "address"
        },
        {
          "indexed": false,
          "internalType": "uint256",
          "name": "amount",
          "type": "uint256"
        },
        {
          "indexed": false,
          "internalType": "uint256",
          "name": "rate",
          "type": "uint256"
        }
      ],
      "name": "TokenPurchased",
      "type": "event"
    },
    {
      "anonymous": false,
      "inputs": [
        {
          "indexed": false,
          "internalType": "address",
          "name": "account",
          "type": "address"
        },
        {
          "indexed": false,
          "internalType": "address",
          "name": "token",
          "type": "address"
        },
        {
          "indexed": false,
          "internalType": "uint256",
          "name": "amount",
          "type": "uint256"
        },
        {
          "indexed": false,
          "internalType": "uint256",
          "name": "rate",
          "type": "uint256"
        }
      ],
      "name": "TokenSold",
      "type": "event"
    },
    {
      "inputs": [],
      "name": "name",
      "outputs": [
        {
          "internalType": "string",
          "name": "",
          "type": "string"
        }
      ],
      "stateMutability": "view",
      "type": "function"
    },
    {
      "inputs": [],
      "name": "rate",
      "outputs": [
        {
          "internalType": "uint256",
          "name": "",
          "type": "uint256"
        }
      ],
      "stateMutability": "view",
      "type": "function"
    },
    {
      "inputs": [],
      "name": "symbol",
      "outputs": [
        {
          "internalType": "string",
          "name": "",
          "type": "string"
        }
      ],
      "stateMutability": "view",
      "type": "function"
    },
    {
      "inputs": [],
      "name": "token",
      "outputs": [
        {
          "internalType": "contract Token",
          "name": "",
          "type": "address"
        }
      ],
      "stateMutability": "view",
      "type": "function"
    },
    {
      "inputs": [],
      "name": "buyTokens",
      "outputs": [],
      "stateMutability": "payable",
      "type": "function"
    },
    {
      "inputs": [
        {
          "internalType": "uint256",
          "name": "_amount",
          "type": "uint256"
        }
      ],
      "name": "sellTokens",
      "outputs": [],
      "stateMutability": "payable",
      "type": "function"
    }
  ],
  "bytecode": "0x60806040526040518060400160405280600f81526020017f46726565646f6d2e46696e616e63650000000000000000000000000000000000815250600090805190602001906200005192919062000120565b506040518060400160405280600381526020017f46444d0000000000000000000000000000000000000000000000000000000000815250600190805190602001906200009f92919062000120565b506064600355348015620000b257600080fd5b5060405162000dab38038062000dab8339818101604052810190620000d891906200024e565b80600260006101000a81548173ffffffffffffffffffffffffffffffffffffffff021916908373ffffffffffffffffffffffffffffffffffffffff16021790555050620002e5565b8280546200012e90620002af565b90600052602060002090601f0160209004810192826200015257600085556200019e565b82601f106200016d57805160ff19168380011785556200019e565b828001600101855582156200019e579182015b828111156200019d57825182559160200191906001019062000180565b5b509050620001ad9190620001b1565b5090565b5b80821115620001cc576000816000905550600101620001b2565b5090565b600080fd5b600073ffffffffffffffffffffffffffffffffffffffff82169050919050565b60006200020282620001d5565b9050919050565b60006200021682620001f5565b9050919050565b620002288162000209565b81146200023457600080fd5b50565b60008151905062000248816200021d565b92915050565b600060208284031215620002675762000266620001d0565b5b6000620002778482850162000237565b91505092915050565b7f4e487b7100000000000000000000000000000000000000000000000000000000600052602260045260246000fd5b60006002820490506001821680620002c857607f821691505b60208210811415620002df57620002de62000280565b5b50919050565b610ab680620002f56000396000f3fe6080604052600436106100555760003560e01c806306fdde031461005a5780632c4e722e146100855780636c11bcd3146100b057806395d89b41146100cc578063d0febe4c146100f7578063fc0c546a14610101575b600080fd5b34801561006657600080fd5b5061006f61012c565b60405161007c9190610660565b60405180910390f35b34801561009157600080fd5b5061009a6101ba565b6040516100a7919061069b565b60405180910390f35b6100ca60048036038101906100c591906106e7565b6101c0565b005b3480156100d857600080fd5b506100e1610330565b6040516100ee9190610660565b60405180910390f35b6100ff6103be565b005b34801561010d57600080fd5b506101166105a1565b6040516101239190610793565b60405180910390f35b60008054610139906107dd565b80601f0160208091040260200160405190810160405280929190818152602001828054610165906107dd565b80156101b25780601f10610187576101008083540402835291602001916101b2565b820191906000526020600020905b81548152906001019060200180831161019557829003601f168201915b505050505081565b60035481565b6000600354826101d0919061086d565b9050600260009054906101000a900473ffffffffffffffffffffffffffffffffffffffff1673ffffffffffffffffffffffffffffffffffffffff166323b872dd3330856040518463ffffffff1660e01b8152600401610231939291906108bf565b602060405180830381600087803b15801561024b57600080fd5b505af115801561025f573d6000803e3d6000fd5b505050506040513d601f19601f82011682018060405250810190610283919061092e565b503373ffffffffffffffffffffffffffffffffffffffff166108fc829081150290604051600060405180830381858888f193505050501580156102ca573d6000803e3d6000fd5b507fa8a7473f10e62cf9687e243de1c3ac8b3cbc3dd04b96826beb3a65b59538581433600260009054906101000a900473ffffffffffffffffffffffffffffffffffffffff1684600354604051610324949392919061095b565b60405180910390a15050565b6001805461033d906107dd565b80601f0160208091040260200160405190810160405280929190818152602001828054610369906107dd565b80156103b65780601f1061038b576101008083540402835291602001916103b6565b820191906000526020600020905b81548152906001019060200180831161039957829003601f168201915b505050505081565b6000600354346103ce91906109a0565b90506000600260009054906101000a900473ffffffffffffffffffffffffffffffffffffffff1673ffffffffffffffffffffffffffffffffffffffff166370a08231306040518263ffffffff1660e01b815260040161042d91906109fa565b60206040518083038186803b15801561044557600080fd5b505afa158015610459573d6000803e3d6000fd5b505050506040513d601f19601f8201168201806040525081019061047d9190610a2a565b90508181101561048c57600080fd5b600260009054906101000a900473ffffffffffffffffffffffffffffffffffffffff1673ffffffffffffffffffffffffffffffffffffffff1663a9059cbb33846040518363ffffffff1660e01b81526004016104e9929190610a57565b602060405180830381600087803b15801561050357600080fd5b505af1158015610517573d6000803e3d6000fd5b505050506040513d601f19601f8201168201806040525081019061053b919061092e565b507f8daf503382665d950e449b86172be5222275c90f4ddf69c29fdaa8237a562a6d33600260009054906101000a900473ffffffffffffffffffffffffffffffffffffffff1684600354604051610595949392919061095b565b60405180910390a15050565b600260009054906101000a900473ffffffffffffffffffffffffffffffffffffffff1681565b600081519050919050565b600082825260208201905092915050565b60005b838110156106015780820151818401526020810190506105e6565b83811115610610576000848401525b50505050565b6000601f19601f8301169050919050565b6000610632826105c7565b61063c81856105d2565b935061064c8185602086016105e3565b61065581610616565b840191505092915050565b6000602082019050818103600083015261067a8184610627565b905092915050565b6000819050919050565b61069581610682565b82525050565b60006020820190506106b0600083018461068c565b92915050565b600080fd5b6106c481610682565b81146106cf57600080fd5b50565b6000813590506106e1816106bb565b92915050565b6000602082840312156106fd576106fc6106b6565b5b600061070b848285016106d2565b91505092915050565b600073ffffffffffffffffffffffffffffffffffffffff82169050919050565b6000819050919050565b600061075961075461074f84610714565b610734565b610714565b9050919050565b600061076b8261073e565b9050919050565b600061077d82610760565b9050919050565b61078d81610772565b82525050565b60006020820190506107a86000830184610784565b92915050565b7f4e487b7100000000000000000000000000000000000000000000000000000000600052602260045260246000fd5b600060028204905060018216806107f557607f821691505b60208210811415610809576108086107ae565b5b50919050565b7f4e487b7100000000000000000000000000000000000000000000000000000000600052601260045260246000fd5b7f4e487b7100000000000000000000000000000000000000000000000000000000600052601160045260246000fd5b600061087882610682565b915061088383610682565b9250826108935761089261080f565b5b828204905092915050565b60006108a982610714565b9050919050565b6108b98161089e565b82525050565b60006060820190506108d460008301866108b0565b6108e160208301856108b0565b6108ee604083018461068c565b949350505050565b60008115159050919050565b61090b816108f6565b811461091657600080fd5b50565b60008151905061092881610902565b92915050565b600060208284031215610944576109436106b6565b5b600061095284828501610919565b91505092915050565b600060808201905061097060008301876108b0565b61097d60208301866108b0565b61098a604083018561068c565b610997606083018461068c565b95945050505050565b60006109ab82610682565b91506109b683610682565b9250817fffffffffffffffffffffffffffffffffffffffffffffffffffffffffffffffff04831182151516156109ef576109ee61083e565b5b828202905092915050565b6000602082019050610a0f60008301846108b0565b92915050565b600081519050610a24816106bb565b92915050565b600060208284031215610a4057610a3f6106b6565b5b6000610a4e84828501610a15565b91505092915050565b6000604082019050610a6c60008301856108b0565b610a79602083018461068c565b939250505056fea2646970667358221220896d152a9ab2650b14ff303f526123efb377387956d4e83134dc7eb765aaa38c64736f6c63430008090033",
  "immutableReferences": {},
  "source": "// SPDX-License-Identifier: UNLICENSED\r\npragma solidity ^0.8.9;\r\n\r\nimport \"./Token.sol\";\r\n\r\ncontract FreedomFinance {\r\n  string public name = \"Freedom.Finance\";\r\n  string public symbol = \"FDM\";\r\n  Token public token;\r\n  uint public rate = 100; //100 FDM tokens = 1 Ether\r\n\r\n  event TokenPurchased( \r\n    address account,\r\n    address token,\r\n    uint amount,\r\n    uint rate\r\n  );\r\n\r\n  event TokenSold( \r\n    address account,\r\n    address token,\r\n    uint amount,\r\n    uint rate\r\n  );\r\n\r\n  constructor(Token _token) {\r\n    token = _token;  \r\n  }\r\n\r\n function buyTokens() public payable {\r\n    uint purchaseAmount = msg.value * rate;\r\n    uint tokenLiquidity = token.balanceOf(address(this));\r\n    //Check if the exchange has enough tokens. require() exist the function when false\r\n    require(tokenLiquidity >= purchaseAmount);\r\n    //transfer tokens to the user\r\n    token.transfer(msg.sender, purchaseAmount);\r\n    // Emit an event\r\n    emit TokenPurchased(msg.sender, address(token), purchaseAmount, rate);\r\n  }\r\n\r\n  function sellTokens(uint _amount) public payable {\r\n    uint etherAmount = _amount / rate;\r\n    // Take the user tokens\r\n    token.transferFrom(msg.sender, address(this), _amount); \r\n    // Pay the user ether\r\n    payable(msg.sender).transfer(etherAmount);\r\n    // Emit an event\r\n    emit TokenSold(msg.sender, address(token), _amount, rate);\r\n  }\r\n}",
  "sourcePath": "C:/Users/kyle-/Web Dev/freedom.finance/src/contracts/FreedomFinance.sol",
  "compiler": {
    "name": "solc",
    "version": "0.8.9+commit.e5eed63a.Emscripten.clang"
  },
  "schemaVersion": "3.4.0",
  "updatedAt": "2021-10-06T23:43:57.191Z",
  "devdoc": {
    "kind": "dev",
    "methods": {},
    "version": 1
  },
  "userdoc": {
    "kind": "user",
    "methods": {},
    "version": 1
  }
}